{
  "contractName": "Hello",
  "abi": [
    {
      "anonymous": false,
      "inputs": [
        {
          "indexed": true,
          "internalType": "address",
          "name": "previousOwner",
          "type": "address"
        },
        {
          "indexed": true,
          "internalType": "address",
          "name": "newOwner",
          "type": "address"
        }
      ],
      "name": "OwnershipTransferred",
      "type": "event"
    },
    {
      "inputs": [],
      "name": "owner",
      "outputs": [
        {
          "internalType": "address",
          "name": "",
          "type": "address"
        }
      ],
      "stateMutability": "view",
      "type": "function",
      "constant": true
    },
    {
      "inputs": [],
      "name": "renounceOwnership",
      "outputs": [],
      "stateMutability": "nonpayable",
      "type": "function"
    },
    {
      "inputs": [
        {
          "internalType": "address",
          "name": "newOwner",
          "type": "address"
        }
      ],
      "name": "transferOwnership",
      "outputs": [],
      "stateMutability": "nonpayable",
      "type": "function"
    },
    {
      "inputs": [],
      "name": "greet",
      "outputs": [
        {
          "internalType": "string",
          "name": "",
          "type": "string"
        }
      ],
      "stateMutability": "view",
      "type": "function",
      "constant": true
    },
    {
      "inputs": [
        {
          "internalType": "string",
          "name": "_newGreeting",
          "type": "string"
        }
      ],
      "name": "updateGreeting",
      "outputs": [],
      "stateMutability": "nonpayable",
      "type": "function"
    }
  ],
  "bytecode": "0x60806040526040518060400160405280601981526020017f48656c6c6f2066726f6d2074686520426c6f636b636861696e000000000000008152506001908051906020019061004f92919061014a565b5034801561005c57600080fd5b5061007961006e61007e60201b60201c565b61008660201b60201c565b61024e565b600033905090565b60008060009054906101000a900473ffffffffffffffffffffffffffffffffffffffff169050816000806101000a81548173ffffffffffffffffffffffffffffffffffffffff021916908373ffffffffffffffffffffffffffffffffffffffff1602179055508173ffffffffffffffffffffffffffffffffffffffff168173ffffffffffffffffffffffffffffffffffffffff167f8be0079c531659141344cd1fd0a4f28419497f9722a3daafe3b4186f6b6457e060405160405180910390a35050565b8280546101569061021c565b90600052602060002090601f01602090048101928261017857600085556101bf565b82601f1061019157805160ff19168380011785556101bf565b828001600101855582156101bf579182015b828111156101be5782518255916020019190600101906101a3565b5b5090506101cc91906101d0565b5090565b5b808211156101e95760008160009055506001016101d1565b5090565b7f4e487b7100000000000000000000000000000000000000000000000000000000600052602260045260246000fd5b6000600282049050600182168061023457607f821691505b60208210811415610248576102476101ed565b5b50919050565b6107f98061025d6000396000f3fe608060405234801561001057600080fd5b50600436106100575760003560e01c80632867cc441461005c578063715018a6146100785780638da5cb5b14610082578063cfae3217146100a0578063f2fde38b146100be575b600080fd5b610076600480360381019061007191906104a7565b6100da565b005b6100806100f8565b005b61008a61010c565b6040516100979190610535565b60405180910390f35b6100a8610135565b6040516100b591906105e9565b60405180910390f35b6100d860048036038101906100d39190610637565b6101c7565b005b6100e261024b565b8181600191906100f3929190610395565b505050565b61010061024b565b61010a60006102c9565b565b60008060009054906101000a900473ffffffffffffffffffffffffffffffffffffffff16905090565b60606001805461014490610693565b80601f016020809104026020016040519081016040528092919081815260200182805461017090610693565b80156101bd5780601f10610192576101008083540402835291602001916101bd565b820191906000526020600020905b8154815290600101906020018083116101a057829003601f168201915b5050505050905090565b6101cf61024b565b600073ffffffffffffffffffffffffffffffffffffffff168173ffffffffffffffffffffffffffffffffffffffff16141561023f576040517f08c379a000000000000000000000000000000000000000000000000000000000815260040161023690610737565b60405180910390fd5b610248816102c9565b50565b61025361038d565b73ffffffffffffffffffffffffffffffffffffffff1661027161010c565b73ffffffffffffffffffffffffffffffffffffffff16146102c7576040517f08c379a00000000000000000000000000000000000000000000000000000000081526004016102be906107a3565b60405180910390fd5b565b60008060009054906101000a900473ffffffffffffffffffffffffffffffffffffffff169050816000806101000a81548173ffffffffffffffffffffffffffffffffffffffff021916908373ffffffffffffffffffffffffffffffffffffffff1602179055508173ffffffffffffffffffffffffffffffffffffffff168173ffffffffffffffffffffffffffffffffffffffff167f8be0079c531659141344cd1fd0a4f28419497f9722a3daafe3b4186f6b6457e060405160405180910390a35050565b600033905090565b8280546103a190610693565b90600052602060002090601f0160209004810192826103c3576000855561040a565b82601f106103dc57803560ff191683800117855561040a565b8280016001018555821561040a579182015b828111156104095782358255916020019190600101906103ee565b5b509050610417919061041b565b5090565b5b8082111561043457600081600090555060010161041c565b5090565b600080fd5b600080fd5b600080fd5b600080fd5b600080fd5b60008083601f84011261046757610466610442565b5b8235905067ffffffffffffffff81111561048457610483610447565b5b6020830191508360018202830111156104a05761049f61044c565b5b9250929050565b600080602083850312156104be576104bd610438565b5b600083013567ffffffffffffffff8111156104dc576104db61043d565b5b6104e885828601610451565b92509250509250929050565b600073ffffffffffffffffffffffffffffffffffffffff82169050919050565b600061051f826104f4565b9050919050565b61052f81610514565b82525050565b600060208201905061054a6000830184610526565b92915050565b600081519050919050565b600082825260208201905092915050565b60005b8381101561058a57808201518184015260208101905061056f565b83811115610599576000848401525b50505050565b6000601f19601f8301169050919050565b60006105bb82610550565b6105c5818561055b565b93506105d581856020860161056c565b6105de8161059f565b840191505092915050565b6000602082019050818103600083015261060381846105b0565b905092915050565b61061481610514565b811461061f57600080fd5b50565b6000813590506106318161060b565b92915050565b60006020828403121561064d5761064c610438565b5b600061065b84828501610622565b91505092915050565b7f4e487b7100000000000000000000000000000000000000000000000000000000600052602260045260246000fd5b600060028204905060018216806106ab57607f821691505b602082108114156106bf576106be610664565b5b50919050565b7f4f776e61626c653a206e6577206f776e657220697320746865207a65726f206160008201527f6464726573730000000000000000000000000000000000000000000000000000602082015250565b600061072160268361055b565b915061072c826106c5565b604082019050919050565b6000602082019050818103600083015261075081610714565b9050919050565b7f4f776e61626c653a2063616c6c6572206973206e6f7420746865206f776e6572600082015250565b600061078d60208361055b565b915061079882610757565b602082019050919050565b600060208201905081810360008301526107bc81610780565b905091905056fea2646970667358221220ece2f4a280c646b460958a1449295316bda67750b6526739ebfffbca5a16886864736f6c634300080a0033",
  "immutableReferences": {},
  "source": "// SPDX-License-Identifier: MIT\npragma solidity >=0.4.22 <0.9.0;\nimport \"@openzeppelin/contracts/access/Ownable.sol\";\n\ncontract Hello is Ownable {\n  string private _greeting = \"Hello from the Blockchain\";\n  \n  function greet() external view returns (string memory) {\n    return _greeting;\n  }\n\n  function updateGreeting(string calldata _newGreeting) external onlyOwner {\n    _greeting = _newGreeting;\n  }\n  \n}\n",
  "sourcePath": "/Users/lliamscholtz/Code/playground/web3-svelte/contracts/Hello.sol",
  "compiler": {
    "name": "solc",
    "version": "0.8.10+commit.fc410830.Emscripten.clang"
  },
  "schemaVersion": "3.4.3",
  "updatedAt": "2022-07-31T19:43:05.069Z",
  "networkType": "ethereum",
  "devdoc": {
    "kind": "dev",
    "methods": {
      "owner()": {
        "details": "Returns the address of the current owner."
      },
      "renounceOwnership()": {
        "details": "Leaves the contract without owner. It will not be possible to call `onlyOwner` functions anymore. Can only be called by the current owner. NOTE: Renouncing ownership will leave the contract without an owner, thereby removing any functionality that is only available to the owner."
      },
      "transferOwnership(address)": {
        "details": "Transfers ownership of the contract to a new account (`newOwner`). Can only be called by the current owner."
      }
    },
    "version": 1
  },
  "userdoc": {
    "kind": "user",
    "methods": {},
    "version": 1
  }
}